:020000040000FA
:1000000005280000000000000900FF2383160313E9
:1000100090009101990117308500870195009600A5
:100020008101811164000730810064008312031391
:10003000850187010730990008308B007A20A501DF
:10004000A801A601FF30AB00FC308700003067003C
:1000500005080B106300AA01FD306700870103014A
:100060005520FE306700043055202A080319422825
:100070002B02031942282A08AB00A6000330A9006E
:100080004030A807F730670069202C08A500260833
:100090003F392804A6007D20290803195128A90BFF
:1000A0002B282A08031921282B28AC001730050516
:1000B000AD00AC0A2D1D6628AC0A2D1E6628AC0AC0
:1000C0002D1C6628AC0AAD1C662800342C08AA003A
:1000D0000800AC010301013E031D6B281730050524
:1000E000AD002D1EAC152D1C2C152D1DAC14AD1CFA
:1000F0002C1408007530A70008001430A100C0209F
:10010000A10B7F28B320253084000230A000FF30EF
:10011000A400000893200008A720840AA00B8928C7
:100120002408A7200800A4060301A41B7A3A241B74
:100130003D3AA41A863A241A433AA419B93A241922
:10014000C43AA418623A2418313AA4000800A30063
:100150000830A100A30D0318AF28B320B028C02099
:10016000A10BAA28C020203085002708A200A20BDE
:10017000B728003085002708A200A20BBD28080080
:10018000003085002708A200A20BC428203085007B
:0A0190002708A200A20BCA280800ED
:02400E00A43FCD
:00000001FF
