:020000040000FA
:10000000052800000000000009008501860181012B
:100010008316031300308500F030860081116400E0
:10002000810164008312031307309F0008308B00A6
:100030007420A501A801A601FF30AB00FC308600AA
:10004000F030660006080B106300AA01FE3066005F
:10005000860120304F20FD30660030304F202A08C6
:1000600003193C282B0203193C282A08AB00A600E0
:100070000330A9004030A807F730660063202C0841
:10008000A50026083F392804A6007720290803196F
:100090004B28A90B25282A0803191B282528AC0062
:1000A000F0300605AD00AC0A2D1E6028AC0AAD1E6E
:1000B0006028AC0A2D1F6028AC0AAD1F60280034F0
:1000C0002C08AA000800AC010301013E031D6528AD
:1000D000F0300605AD00AD1FAC152D1F2C15AD1E63
:1000E000AC142D1E2C1408007530A7000800143025
:1000F000A100BA20A10B7928AD2025308400023060
:10010000A000FF30A40000088D200008A120840A70
:10011000A00B83282408A1200800A4060301A41B27
:100120007A3A241B3D3AA41A863A241A433AA4196F
:10013000B93A2419C43AA418623A2418313AA400EE
:100140000800A3000830A100A30D0318A928AD20C2
:10015000AA28BA20A10BA428BA20013085002708BC
:10016000A200A20BB128003085002708A200A20B34
:10017000B7280800003085002708A200A20BBE287F
:0E018000013085002708A200A20BC428080049
:02400E00103F61
:00000001FF
