:020000040000FA
:100000000528000000000000090007309900831651
:1000100091011730850087019500960081018111BB
:100020006400073081006400831285018701083075
:100030008B007520A501A801A601FF30AB001C3084
:1000400087000030670005080B106300AA011D300F
:1000500067008701030150201E30670004305020E4
:100060002A0803193D282B0203193D282A08AB0052
:10007000A6000330A9004030A807173067006420AD
:100080002C08A50026083F392804A600832029084B
:1000900003194C28A90B26282A0803191C282628EE
:1000A000AC0017300505AD00AC0A2D1D6128AC0A67
:1000B0002D1E6128AC0A2D1C6128AC0AAD1C6128DC
:1000C00000342C08AA000800AC010301013E031D06
:1000D000662817300505AD002D1EAC152D1C2C15FE
:1000E0002D1DAC14AD1C2C1408008312043092009A
:1000F0000D30930000309500831619309200831262
:100100007530A70008001430A100C820A10B852875
:10011000B920253084000230A000FF30A400000880
:1001200099200008AD20840AA00B8F282408AD2058
:100130000800A4060301A41B7A3A241B3D3AA41A22
:10014000863A241A433AA419B93A2419C43AA4188D
:10015000623A2418313AA4000800A3000830A10034
:10016000A30D0318B528B920B628C820A10BB028C4
:10017000C820163091000C3095002708A200A20B71
:10018000BF28003095002708A200A20BC528080050
:10019000003095002708A200A20BCC281630910051
:0E01A0000C3095002708A200A20BD4280800FE
:02400E00C430BC
:00000001FF
